:020000040800F2
:10000000383400209D0100080D340008CF2B000873
:100010000D330008CD040008553A00080000000028
:1000200000000000000000000000000005010008C2
:10003000C90600080000000049010008B1360008A8
:10004000B7010008B7010008B7010008B7010008B0
:10005000B7010008B7010008B7010008B7010008A0
:10006000B7010008B7010008B7010008B701000890
:10007000B7010008B7010008B7010008B701000880
:10008000B7010008B7010008B7010008B701000870
:10009000B7010008B7010008B7010008B701000860
:1000A000B7010008B7010008B7010008B701000850
:1000B000B7010008B701000845370008B70100087C
:1000C000B7010008B7010008B7010008B701000830
:1000D000B7010008493A0008B7010008B701000855
:1000E000B7010008B7010008B7010008DFF810D019
:1000F00000F0CCF800480047F53E0008AFF3008060
:1001000038340020224B19680868B0E8F00F80F3FB
:100110000988BFF36F8F4FF0000080F311884EF015
:100120000D0E70470000000006480068006880F36C
:10013000088862B661B6BFF34F8FBFF36F8F00DFE1
:1001400000BF00BF08ED00E0EFF30980BFF36F8F41
:100150000F4B1A6820E9F00F106008B54FF05000FF
:1001600080F31188BFF34F8FBFF36F8F04F024FE2D
:100170004FF0000080F31188BDE808401968086856
:10018000B0E8F00F80F30988BFF36F8F704700BFAE
:1001900058000020EFF305807047000006488047B4
:1001A00006480047FEE7FEE7FEE7FEE7FEE7FEE75C
:1001B000FEE7FEE7FEE7FEE743370008ED00000834
:1001C00040EA01039B0703D009E008C9121F08C0D9
:1001D000042AFAD203E011F8013B00F8013B521E59
:1001E000F9D27047D2B201E000F8012B491EFBD2D0
:1001F00070470022F6E710B513460A460446194632
:10020000FFF7F0FF204610BD30B505462A460B46E5
:1002100012F8010B13F8014B08B1A042F8D01CB141
:10022000002802D06D1CF1E7284630BDCAB2401E3E
:1002300010F8011F8A4202D00029F9D1002070472E
:1002400030B505460020034600E05B1C934205D212
:10025000EC5CC85C201A01D1002CF6D130BD30B561
:100260000B46014600202022012409E021FA02F574
:100270009D4205D303FA02F5491B04FA02F528440E
:10028000151EA2F10102F1DC30BD0000064C074D45
:1002900006E0E06840F0010394E807009847103456
:1002A000AC42F6D3FFF726FF4C6400086C640008EC
:1002B00070B5044600688168C943C90717D18168D1
:1002C00021F00101816001F0CDF905460AE000BF8F
:1002D00001F0C8F9401B022804D920688068C04397
:1002E000C00706D020688068C043C007F0D0002057
:1002F00070BDA06A40F01000A062E06A40F001000A
:10030000E062012070BD0000F8B5002604460096AA
:1003100000688168C943C9072DD0816841F0010197
:100320008160164816490068B0FBF1F000E0401EFD
:1003300000900028FBD101F095F9054616E000BFBA
:1003400001F090F9401B022810D920688068C04352
:10035000C0070BD0A06A40F01000A062E06A40F035
:100360000100E06284F824600120F8BD2068806804
:10037000C043C007E4D10020F8BD00001C000020ED
:1003800040420F0010B5012000F090F8072000F067
:100390008DF8102000F08AF8962001F057F8002020
:1003A00010BD38B50446684600F00AF808B10020D0
:1003B00038BDBDF8000040BA2080012038BD0000E3
:1003C00008B502464FF4FA71034800910223462112
:1003D000406801F011FA08BD3000002088B0012506
:1003E0008DF80050264E274C4FF4FA6700F010FDB0
:1003F0002448FFF7D6FF608003F04CF9608820B1F5
:100400002148008801280CD01AE000F001FD1FA24D
:100410000421002002F049FE03F03CF9FFF7B2FF8F
:100420002AE02088192802D28DF8185002E0002016
:100430008DF8180000231A4606A9306804F0FCFD68
:1004400020880390134800231A466946006804F088
:10045000F3FD00F0DDFC10A20421002002F025FED7
:1004600010A204210C2002F020FE228804210C207E
:1004700002F019FE03F00EF9384604F0A1FBB5E7CF
:100480004C00002030000020420000206572726F96
:1004900072000000480000204C696768742020202A
:1004A000203D200009090909000000001CB50123B6
:1004B0008DF804004FF4FA700090034801AA462119
:1004C000406801F0C1FA1CBD30000020FEE70000CA
:1004D00001220221014801F0C0B8000000080140DB
:1004E00010B50221034801F0B3F8012800D0002024
:1004F00010BD0000000801402DE9F35FDFF8909087
:100500008346002202214C46484601F0A6F81420FA
:1005100003F016FD01220221204601F09EF83C2046
:1005200004F0FEF9FFF7DCFF4FF0FF3A68BB4FF431
:100530007A742146012000F0B5F830BB2146002036
:1005400000F0B0F808BB00F025F8C5B200F022F8C2
:1005500000F0FF0800F01EF8C4B200F01BF8C7B2AC
:1005600000F018F8C6B201220221484601F075F8E1
:1005700005EB080020443844B04206D1CBF80050C7
:10058000019804600020BDE8FC9F5046FBE7000096
:10059000000801402DE9F04100242546671E4FF474
:1005A0007A763146012000F07DF801280ED028200F
:1005B00004F0B6F96400FFF793FF012801D144F07D
:1005C00001043146002000F06DF810B13846BDE856
:1005D000F0816D1C082DE4DB2046F8E788B0002090
:1005E0008DF808004FF4FA6504F0DEFB01A96846B7
:1005F000FFF782FF044605F093F95CB100F008FCB8
:1006000000211DA2084602F050FD03F043F8FFF759
:100610005FFF2CE000980490019803901848002395
:100620001A4602A9006804F007FD00F0F1FB002162
:1006300014A2084602F039FD00210C20009A02F0B5
:1006400032FD13A200210F2002F02FFD11A2022182
:10065000002002F02AFD02210C20019A02F023FD65
:100660000FA202210F2002F020FD03F013F828460C
:1006700004F0A6FAB8E700006572726F720000001D
:100680004800002048756D6964697479203D200038
:100690002500000054656D7074757265203D200062
:1006A0004300000070B50C46054608E0FFF718FF50
:1006B000A84201D1002070BD012004F031F9641E70
:1006C000F4D24FF0FF3070BD7047000010B54FF40A
:1006D00000710348FFF78DFD02490020088010BD1E
:1006E000F00100204000002010B500F035F800288F
:1006F0004FF0000108460DD002F0D1FC00210DA200
:10070000084602F0D2FC0221BDE810400DA20020F4
:1007100002F0CBBC02F0C3FC00210DA2084602F09F
:10072000C4FC4FF4FA7003F00BFCBDE8104002F07B
:10073000B4BC00004553505F496E69745F466169FF
:100740006C00000050726573732052535400000017
:10075000537563636565640030B50021ADF5237D95
:100760007EA2084602F0A1FC4FF4FA74204603F082
:10077000E7FB0021084602F092FC00217BA208461C
:1007800002F093FCA2007CA17CA000F0F3FA002808
:100790007CD1204603F0D4FB0021084602F07FFC08
:1007A000002178A2084602F080FC224672A178A0BF
:1007B00000F0E0FA0028EBD1204603F0C1FB002155
:1007C000084602F06CFC002172A2084602F06DFCA3
:1007D000224669A173A000F0CDFA00286DD1204611
:1007E00003F0AEFB224664A171A000F0C3FA00281A
:1007F00063D1204603F0A4FB0021084602F04FFC21
:1008000000216DA2084602F050FC6EA370A272A1F6
:1008100082A803F07BF965002A4657A182A800F060
:10082000A9FA48B1204603F08BFB2A4652A16FA0DB
:1008300000F0A0FA002840D1204603F081FB0021FF
:10084000084602F02CFC002170A2084602F02DFCA4
:100850007248009072A375A276A102A803F056F91F
:10086000224645A102A800F085FA002825D120469D
:1008700003F066FB0021084602F011FC002178A27B
:10088000084602F012FC2A463BA100E015E078A0E1
:1008900000F070FA88B9204603F052FB00210846A8
:1008A00002F0FDFB00217DA2084602F0FEFB2A4675
:1008B00031A17EA000F05EFA18B101200DF5237D74
:1008C00030BD204603F03CFB0021084602F0E7FB68
:1008D000002185A2084602F0E8FB002218211E2014
:1008E00004F011FB834C00220121A060052004F0DC
:1008F0000AFBE06000220121052004F004FB2061D6
:1009000000241825CDE90054234680227AA17D4891
:1009100004F082FECDE90054002380227AA17D48B4
:1009200004F07AFECDE90054002380227AA17F48AA
:1009300004F072FE1A25CDE90054002320227CA188
:100940007E4804F069FECDE90054002320227CA1FA
:100950007E4804F061FE0020B0E700004553505F80
:10096000496E69745F53746172740000312045539D
:10097000505F5253540000004F4B000041542B5223
:100980005354000032204553505F544553540000E7
:100990004154000033204553505F5345545F535436
:1009A0004100000041542B43574D4F44453D310019
:1009B000415445300000000034204553505F5749F2
:1009C0004649000031333330363536393333300061
:1009D0007A6F6E670000000041542B43574A415024
:1009E0003D222573222C22257322000041542B43E3
:1009F000574A41503D227A6F6E67222C22313333A1
:100A00003036353639333330220000003520455337
:100A1000505F434F4E4649470000000018630008EE
:100A20004676324B75793939684C00004553503859
:100A30003236360041542B4D515454555345524390
:100A400046473D302C312C222573222C222573223F
:100A50002C222573222C302C302C22220000000066
:100A600036204553505F4F4E454E45540000000020
:100A700041542B4D515454434F4E4E3D302C226D1A
:100A8000717474732E6865636C6F7564732E636F15
:100A90006D222C313838332C3000000037204F4E77
:100AA000454E45545F544F504943000041542B4D2F
:100AB0005154545355423D302C22247379732F46A0
:100AC00076324B75793939684C2F45535038323668
:100AD000362F7468696E672F70726F7065727479E3
:100AE0002F736574222C30004553505F5345545F7B
:100AF0004F4B00004000002044485431315F5465A2
:100B000073740000DD0500084248313735305F540A
:100B100065737400DD0300084D6F69737475726549
:100B200053656E736F725F54657374004D330008C4
:100B30004C696768745F546573740000C1300008C5
:100B400057617465725F546573740000693A0008F8
:100B500070B514460D4686B0D0E903120DF1040CB1
:100B6000067D437D8CE84E00816800914368044A0D
:100B70002146284602F0B0FF06B080B270BD0000EA
:100B80009463000808B51E4D1E4C4FF0FF363146E9
:100B9000286804F04BFC0128F9D11BA11E4800F085
:100BA0000BF9411C0AD0012800D000208DF800006C
:100BB00000231A466946E06804F03EFA17A1164879
:100BC00000F0FAF8411C0AD0012800D000208DF86E
:100BD000000000231A466946206904F02DFA13A18B
:100BE0000D4800F0E9F8411C00D0608014A10A48CB
:100BF00000F0E2F8411C00D0A080FFF767FDC6E7D7
:100C00000800002040000020224C696768745F7370
:100C10007461747573220000F00100202257617422
:100C200065725F737461747573220000224175747C
:100C30006F5F6C696768745F6D6F646522000000A8
:100C4000224175746F5F77617465725F6D6F646563
:100C500022000000D8B0FFF747FD234D214E4FF092
:100C6000FF3705F118043A461F49B06804F042FB0B
:100C700001281AD1287820B101280AD0022814D1DD
:100C80000DE068686060A868A060207E40F0010008
:100C90000AE0E868E060207E40F0020004E0286995
:100CA0002061207E40F004002076207E0728DAD1E3
:100CB0000E484FF4AF726946007820750C480078F2
:100CC000607509481830FFF743FF0146684600F099
:100CD00011F800202076044818211830FFF789FA0F
:100CE000C1E7000040000020F00300205500002074
:100CF0005400002010B5A2B00446009109A314A22C
:100D0000802101A802F0E8FE01A919A002F0D4FE9A
:100D1000322000F09BFB214615A002F0CDFE22B050
:100D200010BD0000247379732F4676324B757939E4
:100D300039684C2F455350383236362F7468696EF7
:100D4000672F70726F70657274792F706F73740093
:100D500041542B4D5154545055425241573D302C23
:100D6000222573222C25642C302C300D0A00000023
:100D70002573000070B514460E460546FFF7A6FC25
:100D8000294609A002F098FE09E031460848FFF71D
:100D90003BFA08B1002070BD012003F0D1F8641EB9
:100DA000A4B2F2D2012070BD25730D0A000000002C
:100DB000F001002072B6FEE770B5FFF725FA4FF09C
:100DC000FF35C0B13A21FFF731FA040013D000BF5C
:100DD00014F8010F2028FBD00928F9D0042208A11B
:100DE0002046FFF72DFA40B1052207A12046FFF764
:100DF00027FA002800D0284670BD012070BD0000F1
:100E0000747275650000000066616C736500000017
:100E100002484FF0FF31006804F008BB04000020D6
:100E2000F8B500250446009590F8240001280BD061
:100E3000012084F824002046FFF73AFA2046FFF705
:100E400063FA060002D050E00220F8BDA06A20F448
:100E5000885040F00200A062022001F01BF82549F2
:100E60000968B1FBF0F0400000E0401E009000284F
:100E7000FBD12068816841F00801816000F0F2FB3D
:100E8000074608E000F0EEFBC01B0A2803D92068E3
:100E90008068000715D4206880680007F2D42068B5
:100EA000816841F00401816000F0DCFB074612E03C
:100EB00000F0D8FBC01B0A280DD9206880684007C5
:100EC00009D5A06A20F0020040F01000A06284F86A
:100ED00024500120F8BD206880684007E8D4A06A4B
:100EE00020F0020040F00100A06284F82450304657
:100EF000F8BD00001C000020F8B50024009490F814
:100F000024202546012A12D0012280F824204A6894
:100F10001F23072A0DD20668776B521E02EB82024E
:100F200093409F430B6893401F43776319E002206F
:100F3000F8BD06680D2A0AD2376BD21F02EB820277
:100F400093409F430B6893401F43376309E0F76A60
:100F50000D3A02EB820293409F430B6893401F437C
:100F6000F7620A68072306680A2A0AD3F7680A3A6A
:100F700002EB420293409F438B6893401F43F7600C
:100F800008E0376902EB420293409F438B6893402D
:100F90001F4337610A68102A01D0112A20D1124B51
:100FA00002689A4217D193681B0219D4936843F4DC
:100FB000000393600968102912D10C490C4A096892
:100FC000B1FBF2F101EB8101490000E0491E009103
:100FD0000029FBD104E0816A41F0200181620124F3
:100FE00080F824502046F8BD002401401C00002059
:100FF00040420F000068C06C704700002DE9F041CE
:101000004FF0000704003D467ED0A06A002628B9B4
:10101000E66284F82460204600F07EF82046FFF760
:1010200047F9A16AC90600D420B1A06A40F01000B7
:10103000A06269E0A16A21F4885141F00201A16235
:101040006268E169237B0A4347EA43010A43A168D6
:101050004FF48077B94209D0012907D05FF0000131
:1010600094F814C0BCF1010F02D00AE03946F7E74A
:10107000F3B1A36A43F02003A362E36A43F00103E0
:10108000E3622368D3F804C02CF4694C4CEA010CE9
:10109000C3F804C021688B68DFF870C003EA0C0352
:1010A00013438B60A168B9420BD0012909D00CE031
:1010B000DFF85CC0A3690CEB43330B4343F40061DE
:1010C000DFE7218A0D05A5F580152168CB6A23F499
:1010D00070032B43CB62216889680E4B1940914203
:1010E00008D1E662A16A21F0020141F00101A1628A
:1010F000BDE8F081A06A20F0020040F01000A0627C
:10110000E06A40F00100E0620120F1E7FDF7E1FF55
:1011100000E0FFFFFE0E1FFF00B585B0002100912B
:1011200001910291039100680E49884218D10E483E
:10113000816941F400718161816901F40071049158
:10114000816941F0040181618069694600F0040011
:1011500004900820009003200190044800F088F9D2
:1011600005B000BD0024014000100240000801400D
:101170002DE9F84300270D460446009700F072FA67
:10118000804620688168C90508D5A06A40F0200023
:10119000A06284F824700120BDE8F8834168C90585
:1011A00003D4C06A10F4700F2AD0022000F072FE3F
:1011B0003B490968B1FBF0F62068036939490B42E5
:1011C0004FEA61014FEAA1121FD1C3684FEA611CC7
:1011D00013EA0C0F19D103690B4225D1C0681042E4
:1011E00022D1142023E0681C0AD02DB100F03AFA75
:1011F000A0EB0800A84203D920680068800725D525
:10120000206800688007EED52DE003690B4202D10B
:10121000C168114206D0026923490A4206D1C0685A
:10122000084203D1542002E0292000E0FC2046437C
:10123000009816E0681C11D02DB100F013FAA0EB55
:101240000800A8420AD90098B04207D2A06A40F02C
:101250000400A06284F8247003209DE70098401CDD
:101260000090B042E6D321686FF012000860A06AD7
:1012700040F40070A06220688068C0F342400728F4
:101280000CD1207B50B9A06A20F48070A062A06AC3
:10129000C00403D4A06A40F00100A06200207BE7F4
:1012A0001C000020244992244992240070B5044671
:1012B00090F8240001280DD0012084F82400204655
:1012C000FFF722F802004FF0000005D084F8240058
:1012D000104670BD022070BDA16A40F201239943FF
:1012E00041F48071A1621F4D23681F49AB4218D1A0
:1012F0000E6816F4702F14D0A66A46F48016A66203
:101300000E68760505D5A66A26F4005646F4805682
:10131000A662A66AF6040AD5E66A26F00606E66222
:1013200006E0A66A26F48016A6625E68E9E7E06237
:1013300084F824006FF00200186020688368C3F30B
:101340004243072B05D1A84208D1096811F4702F38
:1013500004D0816841F480118160B9E7816841F46B
:10136000A001F9E7002801400424014010B590F8DD
:1013700021100022022905D00421816380F8202059
:10138000012010BD01680B6823F00E030B6001689B
:101390000B6823F001030B6090F84030C46B01210F
:1013A00001FA03F3636080F8211080F820201046D2
:1013B00010BD000010B590F821100024022903D0C0
:1013C0000421816301243DE001680A6822F00E02D5
:1013D0000A6001680A6822F001020A601A4A01687C
:1013E000914201D1012121E0174A1432914201D1E9
:1013F00010211BE0144A2832914201D1891515E0D1
:10140000114A3C32914201D189140FE00E4A503208
:10141000914202D14FF4803108E00B4A643291428C
:1014200002D14FF4801101E04FF08071064A083A72
:101430005160012180F82110002180F82010416BBB
:1014400001B18847204610BD0800024070B504462F
:1014500000F008F90546601C02D0044800780444F6
:1014600000F000F9401BA042FAD370BD100000202C
:101470002DE9F84FDFF8B8910024A9F1040B2346B9
:101480000F2709F1040AABF1040EC9E00125A540BC
:101490002A40AA427DD1674ED1F804C0ACEB0608C1
:1014A000B44532D014DCBCF1030F3AD009DCBCF1F6
:1014B000000F2AD0BCF1010F1CD0BCF1020F31D1BA
:1014C0001DE0BCF1110F17D0BCF1120F2AD119E0A9
:1014D000B8F5881F19D006DCB8F5803F15D0B8F5EF
:1014E000801F1FD111E0B8F5001F0ED0B8F5041F02
:1014F00018D10AE0CB6815E0CB681B1D12E0CB6861
:1015000008330FE0CB680C330CE08B682BB1012B58
:101510004FF0080303D0456104E0042302E00561B5
:1015200000E00023FF2A01D8064601E000F104068E
:101530004FEA840501D9A5F12005D6F8008007FA05
:1015400005FC28EA0C0803FA05F548EA0508C6F880
:1015500000804D68ED0062D5374DAE6946F001065A
:10156000AE61AD6924F0030605F001050095334D29
:1015700006EB050CDCF80850A607360F07FA06F84C
:1015800025EA0805DFF8B880404503D14FF0000890
:1015900017E044E0DFF8AC80404502D14FF001088D
:1015A0000FE0DFF8A480404502D14FF0020808E0C8
:1015B000DFF89880404502D14FF0030801E04FF07A
:1015C000040808FA06F848EA0508CCF808804D68CF
:1015D000D9F80060ED024D4601D5164300E0964370
:1015E0002E604D68DAF80060AD02554601D516430D
:1015F00000E096432E604D68DBF80060AD035D4669
:1016000001D5164300E096432E604D68DEF8006079
:10161000ED03754601D5164300E096432E60641C29
:101620000D682A46E5407FF431AFBDE8F88F000031
:1016300008040140000011100010024000000140A9
:1016400000080140000C014000100140001401405E
:101650008068084000D0012070470AB101617047DE
:101660000904FBE701488068704700001000002073
:1016700070B5040025D094F83D00002520B984F809
:101680003C50204600F00EFB242084F83D002068EA
:10169000016821F0010101602068016841F4004106
:1016A00001602068016821F40041016000F070FDD4
:1016B0004D4A6168914201D84C4900E04C4988424A
:1016C00001D2012070BD4B492368B0FBF1F15E6887
:1016D00026F03F060E435E606368934206D94FF4DE
:1016E000967359434FF47A73B1FBF3F12368491CA5
:1016F0001E6A26F03F06314319626168914210D894
:101700004900401EB0FBF1F2521CC2F30B02042A46
:1017100001D2042022E0B0FBF1F0401CC0F30B002A
:101720001CE0A268F2B301EBC10303EB0116431EF8
:10173000B3FBF6F35B1C43F480431B0549D092B323
:1017400001EBC10202EB0111401EB0FBF1F0401CA5
:10175000C0F30B0040F4804040F400402168CA69A7
:101760004CF6FF739A431043C861D4E90710014354
:101770002068026822F0C00211430160D4E903012D
:1017800001432068826848F2FF339A431143816025
:10179000D4E9050108432168CA6822F0FF0210431A
:1017A000C86001E00EE016E02068016841F0010128
:1017B00001602564202084F83D00256384F83E50B4
:1017C000002070BD01EB4106431EB3FBF6F35B1C2A
:1017D000B3E70120C2E701EB4101401EB0FBF1F08D
:1017E000401CC0F30B00B7E7A086010080841E00F8
:1017F00000093D0040420F002DE9F84F0025DDF8BB
:101800002890984617468A4604460095FFF72AFF17
:10181000064694F83D0020287AD1192301228649F2
:101820002046009601F030FB0028F5D194F83C00EA
:1018300001286DD0012084F83C0020680168C907A8
:1018400003D1016841F0010101602068016821F4C1
:1018500000610160222084F83D00102084F83E00E1
:1018600025646762A4F82A80608D20857348E06251
:1018700033464A465146204601F0C2F900287CD141
:10188000208DDFF8BC81202768B1012814D0022800
:10189000206801681ED041F48061016020684169C0
:1018A00080690090BBE0206841698169009101680E
:1018B00041F400710160B2E02068016821F48061A8
:1018C000016072B62068416981690091016841F444
:1018D00000710AE041F40061016072B6206841695C
:1018E00081690091016821F48061016062B696E02F
:1018F000032865D801280CD002284B464FF000027F
:101900004146204600960BD001F0BEFAA8BB0CE081
:1019100090E032464946204601F05CFB68BB71E02E
:1019200001F0B2FA48BB72B633E02068016821F4D6
:101930008061016072B620680069616A0870606A3F
:10194000401C6062208D401E2085608D401E608599
:101950003C4846F2A8110068B0FBF1F0C0EBC000B3
:1019600000EB80000090401E009007D02068406986
:10197000C04340070DD50098F5E727E044F8305FF5
:101980006773A573206940F02000206162B625735B
:101990001CE02068016841F4007101602068006962
:1019A000616A0870606A401C6062218D491E218551
:1019B000618D491E618562B621680969017025E063
:1019C00032464946204601F005FB10B10120BDE832
:1019D000F88F20680069616A0870606A401C606264
:1019E000208D401E81B22185608D401E608520685B
:1019F0004269D243520712D4032903D1016821F46A
:101A00008061016020680069616A0870606A401C3A
:101A10006062208D401E2085608D401E6085208D77
:101A200000287FF465AF84F83D7084F83E5084F858
:101A30003C50CCE70220CAE7020010000000FFFF84
:101A4000040001001C0000202DE9F84F1F469046BD
:101A50008A460446DDF82890FFF704FE054694F810
:101A60003D0020287FD119230122404920460095BE
:101A700001F00AFA002876D194F83C00012872D0CF
:101A8000012084F83C0020680168C90703D101687F
:101A900041F0010101602068016821F400610160EA
:101AA000212084F83D00102084F83E0000262664A2
:101AB000C4F824806785608D20852D48E0622B4620
:101AC0004A465146204601F011F990B92068416913
:101AD0008069009036E02A464946204601F0B2FA75
:101AE00050B1206C042804D12068016841F40071D1
:101AF00001600120BDE8F88F606A21680078086104
:101B0000606A401C6062618D491E6185218D491E9D
:101B100089B2218522685369DB435B070BD451B13D
:101B200000781061606A401C6062608D401E6085B4
:101B3000208D401E20852A464946204601F078F92E
:101B40000028CED1208D0028C5D154F83D0B016866
:101B500041F400710160202004F81E09E6776677E1
:101B60000020C7E7FFE70220C4E7000002001000E2
:101B70000000FFFF2DE9FF4F83B09A46DDE9119782
:101B800093460446DDF84080FFF76CFD054694F867
:101B90003D0020287FD1192301224049204600958D
:101BA00001F072F9002876D194F83C00012872D037
:101BB000012084F83C0020680168C90703D101684E
:101BC00041F0010101602068016821F400610160B9
:101BD000212084F83D00402084F83E000026266441
:101BE000C4F82480A4F82A90608D20852C48E062F7
:101BF000CDE9007553465A462046049901F0C4F8D1
:101C000070B930E02A463946204601F01BFA58B137
:101C1000206C042804D12068016841F4007101603F
:101C2000012007B0BDE8F08F606A21680078086184
:101C3000606A401C6062218D491E89B22185628DD7
:101C4000521E628522685369DB435B070BD469B17E
:101C500000781061606A401C6062208D401E208503
:101C6000608D401E6085208D0028CBD12A463946E4
:101C7000204601F0DDF80028CAD154F83D0B016878
:101C800041F400710160202004F81E09E6776677B0
:101C90000020C6E7FFE70220C3E7000002001000B3
:101CA0000000FFFF10B586B0002100910191029164
:101CB000039100680F4988421AD10F4CA06940F087
:101CC0000800A061A069694600F008000490C020E7
:101CD000009012200190032003900848FFF7C8FBF2
:101CE000E06940F40010E061E06900F40010049045
:101CF00006B010BD0054004000100240000C01402E
:101D00000248816802781144816070471000002009
:101D1000074810B5016841F010010160032000F090
:101D2000A7F80F2000F006F800F050F8002010BDD2
:101D30000020024030B505461F4887B0C16941F018
:101D40000401C161C06906A900F00400009001A867
:101D500000F0FEF90498B0B100F01AFA40001749FB
:101D6000174AB0FBF1F11748491E0260416040F28A
:101D7000E7320021C0E903218160816100F0E0FBCE
:101D8000040003D015E000F003FAE8E70D4800F086
:101D900005FC04000DD11E2000F03CF8102D07D2E8
:101DA000002229461E2000F043F80748056000E0A5
:101DB000012407B0204630BD0010024040420F0011
:101DC00000080040A8010020140000200F4808B5BA
:101DD000816941F001018161816901F00101009196
:101DE000C16941F08051C161C069002200F080509A
:101DF00000900F21901E00F01BF80548416821F06B
:101E0000E06141F00071416008BD00000010024037
:101E100000000140002809DB00F01F020121914071
:101E20004009800000F1E020C0F800117047000078
:101E3000F0B40E4B1B680C46C3F30223C3F1070535
:101E4000042D00D90425191D072901D2002300E023
:101E5000DB1E012606FA05F1491E214099409E40ED
:101E6000761E16403143F0BC01F064BE0CED00E07C
:101E7000064900F0070208684FF6FF03184040EAE1
:101E80000220034A10430860704700000CED00E098
:101E90000000FA0510B501460020234C012922D08C
:101EA000022939D010291DD161682268D20119D5C3
:101EB0001E48C1F38342C903805C0AD561681B4A8E
:101EC000C1F34041921E515C194AB2FBF1F1484303
:101ED00001E0184948436168490203D440000321E6
:101EE000B0FBF1F010BD226AC2F30121012903D138
:101EF000920701D5C80310BD022905D1626A920775
:101F000002D549F6404010BD0329FCD12168890360
:101F1000F9D54FF2244010BD00F04AF96168C1F3D1
:101F20008131491C4900DBE700100240E45A0008F7
:101F300000127A0000093D002DE9F84305460078BB
:101F4000354CC00754D0E0690026C00008D4E069D1
:101F500040F08050E061E069012600F08050009080
:101F60002E480168C90512D40168804641F4807189
:101F70000160FFF777FB074605E000BFFFF772FB44
:101F8000C01B642823D8D8F80000C005F6D5206A05
:101F900010F4407021D0A98801F4407181421CD016
:101FA000206A1F49012220F440700A6000220A6062
:101FB0002062C00711D0FFF755FB074641F2883871
:101FC00008E000BFFFF74EFBC11B414502D90320CB
:101FD000BDE8F883206A8007F4D5206A696820F498
:101FE0004070084320621EB1E06920F08050E0613B
:101FF0002878800705D56068A96820F44040084328
:1020000060602878C00605D56068E96820F4800023
:10201000084360600020DBE70010024000700040D1
:10202000400442422DE9F0470F46050061D0434E7F
:10203000306800F00700B84209D2306820F007008D
:1020400038433060306800F00700B84251D128684A
:102050003B4C810712D5400703D5606840F4E0602F
:1020600060602878000703D5606840F460506060C5
:102070006068A96820F0F000084360602878C00715
:1020800028D06868012810D02168022810D089075C
:1020900000292EDA616821F0030101436160FFF736
:1020A000E1FA804641F288390DE021688903EFE7C3
:1020B0008901EDE7FFF7D6FAA0EB0801494502D9FF
:1020C0000320BDE8F0876068696800F00C00B0EBA1
:1020D000810FEFD1306800F00700B8420BD93068AB
:1020E00020F0070038433060306800F00700B84245
:1020F00001D00120E5E72878400705D56068E96848
:1021000020F4E060084360602878000706D5606826
:10211000296920F4605040EAC100606000F058F87E
:102120006168084AC1F30311515CC8400649086060
:1021300006480068FFF7FEFD0020C2E700200240CD
:1021400000100240F45A00081C0000201400002077
:102150000F2202600C4A536803F003034360536884
:1021600003F0F0038360536803F4E063C3605268D4
:102170004FF4E06303EAD20202610448006800F011
:102180000700086070470000001002400020024075
:102190000448054900684968044AC1F30221515CBA
:1021A000C84070471C00002000100240045B00087B
:1021B0000448054900684968044AC1F3C221515CDA
:1021C000C84070471C00002000100240045B00085B
:1021D0000E4A51680E4801F00C03042B11D0082B55
:1021E0000FD10C48C1F38343C903C05C0AD55168C1
:1021F000084AC1F34041921E515C054A5043B0FB6E
:10220000F1F0704704494843704700000010024055
:1022100000127A00D25A000800093D002DE9F84F5B
:10222000040070D02078C04DC00749D06868C0F362
:102230008100012807D06868C0F38100022809D115
:102240006868C00306D52868800339D5606800280F
:10225000E7D035E06068B0F5803F0BD010B1B0F545
:10226000A02F11D0286820F480302860286820F43E
:10227000802002E0286840F480302860606890B1D7
:10228000FFF7F0F906460AE0286840F4802028604D
:10229000F0E700BFFFF7E6F9801B642873D82868D1
:1022A0008003F7D50CE0FFF7DDF9064605E000BF37
:1022B000FFF7D8F9801B6428F0D828688003F7D48A
:1022C00020789A4E80074FF001094FF0000839D569
:1022D000686810F00C0F07D06868C0F3810002280E
:1022E00009D16868C00306D42868800714D520691E
:1022F000012808D110E02069B0B1C6F80090FFF7BE
:10230000B1F9074605E00AE1FFF7ACF9C01B022866
:10231000C4D828688007F7D52868616920F0F800DC
:1023200040EAC10028600DE0C6F80080FFF79AF986
:10233000074604E0FFF796F9C01B022823D8286857
:102340008007F7D4207800072CD57948A169D9B146
:10235000C0F80090FFF786F9074604E0FFF782F91E
:10236000C01B02280FD8686A8007F7D571484FF460
:10237000FA510068B0FBF1F0009000BF0098411ED8
:102380000091FAD20EE080E0C0F80080FFF76AF911
:10239000074604E0FFF766F9C01B022875D8686A93
:1023A0008007F7D42078400760D5E8690027C0008F
:1023B00008D4E86940F08050E861E869012700F03E
:1023C000805000905C480168C90513D401688346B9
:1023D00041F480710160FFF745F9824606E000BFD5
:1023E000FFF740F9A0EB0A0064284ED8DBF80000A4
:1023F000C005F5D5E06801280AD008B1052813D03A
:10240000286A20F001002862286A20F0040002E017
:10241000286A40F001002862E06841F2883B98B1E8
:10242000FFF720F982460BE0286A40F0040028629A
:10243000EEE700BFFFF716F9A0EB0A0159455AD89D
:10244000286A8007F6D50CE0FFF70CF9824605E014
:10245000FFF708F9A0EB0A0159454CD8286A800714
:10246000F6D41FB1E86920F08050E861E06988B3D4
:102470006968C1F38101022944D00228C6F860804E
:1024800004D0FFF7EFF8044638E034E0FFF7EAF84D
:10249000074604E0FFF7E6F8C01B02282BD828689F
:1024A0008001F7D4206AB0F5803F05D16868A16843
:1024B00020F4003008436860D4E9080108436968E3
:1024C00021F4741108436860C6F86090FFF7CAF8F9
:1024D000044606E025E000BFFFF7C4F8001B022811
:1024E00009D828688001F7D51BE000BFFFF7BAF8CC
:1024F000001B022802D90320BDE8F88F286880015C
:10250000F4D40EE00128F7D06868226A00F4803124
:10251000914204D1616A00F47010884201D0012018
:10252000EAE70020E8E70000001002400000424215
:10253000800442421C000020007000407047704739
:1025400010B5040003D094F83D0010B107E001205D
:1025500010BD002084F83C00204600F01EF8022048
:1025600084F83D00211D206801F0F2F8012084F874
:10257000460084F83E0084F83F0084F8400084F868
:10258000410084F8420084F8430084F8440084F851
:10259000450084F83D00002010BD704790F83D10C4
:1025A000012901D001207047022180F83D10016807
:1025B000CA6842F00102CA6000680B49884208D02C
:1025C000B0F1804F05D00949884202D008498842BD
:1025D00004D1816801F00701062903D0016841F0A8
:1025E0000101016000207047002C01400004004000
:1025F0000008004070472DE9F04104460068C668B5
:1026000005694FF00007A90713D5B10711D5F91EC9
:10261000016101202077206880698007204602D070
:10262000FFF7E8FF04E000F07EF8204600F07CF8B9
:102630002777680716D5700714D521686FF0040056
:102640000861022020772068806910F4407F2046CE
:1026500002D0FFF7CFFF04E000F065F8204600F05D
:1026600063F82777280715D5300713D521686FF051
:1026700008000861042020772068C0698007204690
:1026800002D0FFF7B7FF04E000F04DF8204600F05D
:102690004BF82777E80616D5F00614D521686FF0B9
:1026A00010000861082020772068C06910F4407F7E
:1026B000204602D0FFF79EFF04E000F034F82046E9
:1026C00000F032F82777E80708D0F00706D0216835
:1026D0006FF001000861204600F028F8280608D5B0
:1026E000300606D521686FF0800008612046FFF7AC
:1026F00025FF680608D5700606D521686FF04000F2
:102700000861204600F01CF8A8060AD5B00608D5D6
:1027100021686FF0200008612046BDE8F041FFF716
:102720000EBFBDE8F08170477047000000680349A4
:10273000884201D1FFF7E4BA70470000000800406A
:102740007047704770470000F8B501680446086894
:10275000CA684B6910F00F0F4FF0000559D003F015
:10276000010602F49077374365D0C10705D0D10543
:1027700003D5616C41F001016164410705D5D907BA
:1027800003D0616C41F002016164810705D5D9076E
:1027900003D0616C41F004016164010707D502F0C8
:1027A0002001314303D0616C41F008016164616C28
:1027B00000293AD0800604D5900602D5204601F0C3
:1027C00032F820684069616CC0F38010090700D4BA
:1027D00060B3204601F000F820684069400621D52A
:1027E0002068143050E8001F21F0400140E800123A
:1027F000002AF5D1E06BA8B16D494163E06BFEF7AB
:10280000D9FD002811D0E06B416B01B0BDE8F0406C
:10281000084783060FD593060DD52046BDE8F8403E
:1028200001F001B82046FFF78DFFF8BD2046FFF705
:1028300089FF6564F8BD266B2023012E7CD1C60676
:102840007AD5D60678D508684868009048694FF070
:102850000206400640D5E16B086840680004000CA1
:10286000E8D0A28D8242E5D9E085886920282DD064
:1028700020680C3050E8001F21F4807140E80012FD
:10288000002AF5D12068143050E8001F21F0010122
:1028900040E80012002AF5D12068143050E8001FEB
:1028A00021F0400140E80012002AF5D184F84230BE
:1028B000256320680C3050E8001F21F0100140E82B
:1028C0000012002AF5D1E06BFEF750FD6663A08D83
:1028D000E18D401A81B22AE0A08DE18D401A81B2CB
:1028E000E08D0028A6D00029A4D022680C3252E83E
:1028F000000F20F4907042E80007002FF5D1206807
:10290000143050E8002F22F0010240E80027002F89
:10291000F5D184F84230256320680C3050E8002F50
:1029200022F0100240E80023002BF5D16663204618
:10293000FFF707FFF8BDFFE705062BD5150629D5DC
:1029400094F841002128F5D1A068B0F5805F01D14D
:102950002069B0B1206A411C21622168007848607A
:10296000E08C401E0004000CE084E3D12068C168C4
:1029700021F08001C1602068C16841F04001C16060
:10298000D8E7206A0088C0F308004860206A801CED
:102990002062E5E74006CDD55006CBD5CA68204673
:1029A00022F04002CA6084F8413000F00FF9C1E71C
:1029B000C937000870B5040004D094F84100002520
:1029C00010B106E0012070BD84F84050204600F0B0
:1029D00023F8242084F841002068C16821F40051C4
:1029E000C160204600F080FF2068016921F4904119
:1029F00001612068416921F02A0141612068C168B4
:102A000041F40051C1606564202084F8410084F8DD
:102A100042006563002070BD30B585B0002400948D
:102A20000194029403940068184988422CD11848F4
:102A3000816941F480418161816901F4804104919F
:102A4000816941F0040181618069124D00F0040048
:102A500004904FF400700090022001900320039036
:102A600069462846FEF704FD2815CDE900046946AD
:102A700028460294FEF7FCFC002205212520FFF7E2
:102A8000D7F92520FFF7C6F905B030BD0038014061
:102A9000001002400008014090F84230202B01D085
:102AA0000220704721B11AB10023036300F078BF00
:102AB0000120704708B500681549884227D1154B99
:102AC000154918880978B0F5FF7F06D8134A1154C4
:102AD000401C80B21880002313547D2910D101209E
:102AE00000900F486946006802F0B5FB009838B1C5
:102AF0000C494FF080500860BFF34F8FBFF36F8FCA
:102B0000BDE80840012204490748FFF7C5BF08BDDA
:102B1000003801404000002000000020F0010020AB
:102B20000800002004ED00E0600100202DE9F843DA
:102B3000044690F84100984616460D46202802D0DB
:102B40000220BDE8F88385B17EB1002060642120B9
:102B500084F84100FEF786FDA6848146E684A068DD
:102B60002027B0F5805F02D003E00120E9E720696B
:102B700010B12E4600250EE000260CE080212046F4
:102B800000F029FFA8B9C6B116F8010B216848600A
:102B9000E08C401EE084E08C4B464FF00002CDF804
:102BA00000800028EAD14FF04001204600F013FFDA
:102BB00040B184F841700320C3E735F8020BC0F33D
:102BC0000800E3E784F841700020BAE77047FEE7A9
:102BD00001684A69D24352050FD46FF480624A619A
:102BE000002140F8301F202242738173026942F0B5
:102BF0000402026101730120704700207047000049
:102C00002DE9F84F0446C06A1E4693460D462168DA
:102C10000A6842F480620A60082807D0012805D0BB
:102C200010F5803F02D0206B112804D12068016884
:102C300041F4807101604FF001195B460022494662
:102C40002046009600F020F94FF4007840B120684B
:102C50000068C00501D5C4F840800320BDE8F88FA6
:102C60002069DFF884A0B0F5804F0FD006202168DE
:102C700000EAD51747F0F000086133465A460AF1DA
:102C80000601204600F048F958BB03E0E8B240F0E6
:102C900001001CE02168E8B2086133465A465146FB
:102CA000204600F039F9E0B9206841698169009156
:102CB000016841F4807101605B460022494620466C
:102CC000009600F0E1F80028C1D147F0F10021683A
:102CD000086133465A465146204600F01DF9002847
:102CE000BCD00120BAE7000002000100F8B504469C
:102CF000C06A1E460D461746082807D0012805D091
:102D000010F5803F02D0206B122804D120680168A2
:102D100041F480710160134600224FF001112046FA
:102D2000009600F0B1F840B120680068C00502D5F7
:102D30004FF4007020640320F8BD2069B0F5804F87
:102D40000ED00620216800EAD51040F0F00008619E
:102D500033463A460B49204600F0DEF878B902E0E7
:102D600005F0FE0000E0E8B221680861054933463D
:102D70003A46891F204600F0CFF80028DCD0012019
:102D8000F8BD0000080001002DE9F8430446006882
:102D90000D46DDE9089701689846164641F48071B2
:102DA00001604B4600224FF001112046009700F0D1
:102DB0006BF848B120680068C00502D54FF4007078
:102DC00020640320BDE8F883216805F0FE00086157
:102DD0003B464A461549204600F09EF888B92068CF
:102DE0004169806900903A464946204600F02AF938
:102DF00048B1206C042804D12068016841F40071B6
:102E000001600120DEE7F5B2B8F1010F09D02168B9
:102E1000300A08613A464946204600F013F9002876
:102E2000E7D1206805610020CCE700000200010026
:102E300070B516460D4604461EE02046FFF7C8FE54
:102E400008B1012070BD681C16D0FEF70BFC801B7A
:102E5000A84200D885B920684069C04340070BD517
:102E6000002044F8300F20216173A073216941F0E4
:102E7000200121612073E4E720684069C0434007D6
:102E8000DBD4002070BD00002DE9F04798461746BE
:102E90000D460446C1F30746DDF820902AE000BF46
:102EA000B8F1FF3F26D0FEF7DDFBA0EB090141455D
:102EB00002D8B8F1000F1DD12068012E16D080690C
:102EC00025EA00000004000C12D00020B84211D105
:102ED000002044F8300F20216173A073216941F074
:102EE0002001216120730120BDE8F0874069E7E7F8
:102EF0000120EBE72068012E0AD0806925EA000056
:102F00000004000C06D00020B842C9D00020EBE736
:102F10004069F3E70120F7E72DE9F04798461646A8
:102F20000D4604464FF000094FF0200AC1F3074751
:102F300023E020684069C043400515D4206801683B
:102F400041F40071016021686FF480604861C4F849
:102F5000309084F83DA084F83E90216C41F004014B
:102F6000216484F83C9021E0701C06D0FEF77AFBC7
:102F7000A0EB0800B04203D816B1012F1FD021E00A
:102F80002068012F15D0806925EA00000004000C9C
:102F900018D000BF44F8309F84F80DA084F80E903C
:102FA000216941F02001216184F80C900120BDE8E5
:102FB000F087406925EA00000004000CEAD120688F
:102FC000406901E02068806925EA00000004000CE7
:102FD000AFD1ECE72DE9F041002590460E460446BE
:102FE000202728E04069C043C0060CD454F8301BA9
:102FF0006FF01000486144F810596777A577206A90
:103000002062257714E0FEF72DFBA0EB0800B0420C
:1030100000D886B920684069C04340060BD544F803
:10302000305F6773A573206940F02000206125732D
:103030000120BDE8F08120684169C9434906D1D427
:103040000020F6E770B516460D4604461EE0204601
:10305000FFF7BEFD08B1012070BD681C16D0FEF759
:1030600001FB801BA84200D885B920684069C04395
:1030700000060BD5002044F8300F20216173A073A7
:10308000216941F0200121612073E4E72068406953
:10309000C0430006DBD4002070BD00F0B8B900F0DA
:1030A000CBB900F0D7B900F01FBA00F05CBA00004D
:1030B000002201210148FEF7D0BA0000000C0140B7
:1030C00008B5104D0126DFF84090104C4FF0FF3846
:1030D000002742466946286802F00CF90128F8D119
:1030E0009DF80000012806D0002201214846FEF785
:1030F000B4FA2770EDE7012211464846FEF7ADFA13
:103100002670E6E74C000020000C0140540000202F
:103110003EB5002411480094019402940E49846045
:10312000016004730475012505614FF4602144605A
:10313000C161FDF763FF08B1FDF73CFE0320CDE957
:103140000005694602940548FDF7D6FE002801D027
:10315000FDF730FE3EBD000000240140DC000020F1
:103160007CB500F0D5F8FDF7B3F9FDF70BF9FFF7E3
:1031700098FFFFF792FFFFF79BFF00F06DFC124AEC
:103180000021124800F024FF114CA060012001F042
:10319000AFFE206003220021012001F0B4FE606038
:1031A00000241925CDE900542346502209A10E48D8
:1031B00002F032FACDE9005400234FF4AF720BA1B4
:1031C0000F4802F029FA7CBDAC5A0008A936000865
:1031D00004000020455350383236365F526563652F
:1031E0006976655461736B00850B00084553503850
:1031F0003236365F53656E645461736B00000000B5
:10320000550C0008F0B585B00020009001900290A8
:1032100003901D48816941F020018161816901F0BD
:1032200020010491816941F004018161816901F00B
:1032300004010491816941F0080181618069134EA4
:1032400000F008000490002202213046FEF705FA43
:103250000F4F002203213846FEF7FFF90224112008
:103260000125CDE90040CDE9025469463046FEF71C
:10327000FFF803200090CDE90154694638460394D5
:10328000FEF7F6F805B0F0BD00100240000801405E
:10329000000C01400D4810B50B4901600C4941601C
:1032A00000214FF480428160C0E9031241618161D5
:1032B000C1610162FEF7DCF9002803D0BDE81040CF
:1032C000FDF778BD10BD0000005400400C01002047
:1032D000A08601000C4810B50A4901604FF4E131A5
:1032E0004160002181600C22C160C0E9041281614B
:1032F000C161FFF75FFB002803D0BDE81040FDF778
:1033000059BD10BD0038014060010020FEE70000FB
:1033100001480068FDF784BD2000002070B50A4C0C
:1033200005462068FDF7C2FF4FF4FA712068FDF7EB
:103330001FFF10B14FF0FF3070BD2068FDF75AFE3F
:103340002860002070BD0000200000208AB002200C
:10335000254D264E8DF808004FF4FA6701A8FFF7B7
:10336000DDFF00283BD101986968884200D90191AE
:103370000198AA68904200D2019264200090002334
:10338000019800F0D3FD04461948008801280BD1AC
:10339000192C00DA00E000208DF8200000231A46E6
:1033A00008A9306801F048FE1248002306941A4626
:1033B00002A9006801F040FEFDF72AFD0EA20621D9
:1033C0000020FFF772FE0FA206210C20FFF76DFE12
:1033D000224606210C20FFF766FE00F05BF9384616
:1033E00001F0EEFBBAE700002000002050000020B2
:1033F00044000020480000204D6F697374757265A9
:10340000203D20002020202020000000FEE710B5F5
:10341000A0B0002480216846FCF7EBFE0021204686
:1034200000F0F4F88021684600F024F9641CE4B24E
:10343000082CF3D320B010BD70B50D46044606E04D
:1034400020222946204600F0A7F8641CE4B2102C84
:10345000F6D370BD10B50224202000F0F7F8204606
:1034600000F0F4F81F4804703F24A82000F0EEF8A4
:10347000204600F0EBF80024D32000F0E7F82046C7
:1034800000F0E4F8402000F0E1F8A12000F0DEF8C0
:10349000C82000F0DBF80021084600F0A1F87F24E6
:1034A000812000F0D3F8204600F0D0F8A42000F0EE
:1034B000CDF8A62000F0CAF8D52000F0C7F880208B
:1034C00000F0C4F88D2000F0C1F8142000F0BEF820
:1034D0000021012000F084F8BDE81040AF2000F08A
:1034E000B5B8000038000020F0B589B000240746C8
:1034F00020466D4604AE002A08DA4FF02D038DF801
:1035000000304FF00104C2F1000214E006D14FF088
:1035100030008DF800004FF001041AE04FF00A0C63
:1035200092FBFCF30CFB132392FBFCF203F1300340
:10353000335400F10100002AF0D108E006EB00024C
:10354000A0F1010012F8012C2A5504F10104002811
:10355000F4D14FF0000028552A46384600F003F811
:1035600009B02046F0BD2DE9F04117460E4604464D
:1035700000250BE03146204600F00EF8641CE4B252
:103580000F2C02D90024B61CF6B26D1C7A5D002AFD
:10359000F0D12846BDE8F08170B51646C206150E7A
:1035A0000C46072918D80F2816D82946204600F0BF
:1035B0002DF80A48082100EB0610064600F05AF8DC
:1035C000641CE0B2294600F021F806F10800BDE8CD
:1035D0007040082100F04EB870BD00000C5B000880
:1035E00070B50C46050001D0012D0ED10CB1012C97
:1035F0000BD1DA2000F02AF8280100EB4410BDE8D6
:103600007040801CC0B200F021B870BD70B50E4D86
:103610000C462978022905D1072803D8B030C0B25A
:1036200000F014F8287802280CD17F2C0AD804F076
:103630000F0000F00BF8102000EB1410BDE87040F4
:1036400000F004B870BD0000380000201CB5002157
:103650008DF804108DF805004FF4FA7000900448BE
:10366000022301AA78214068FEF7EEF91CBD000094
:10367000380000200EB54FF4FA728DE807000448B8
:103680000123402278214068FEF774FA0EBD000045
:1036900038000020034800231A461946006801F04C
:1036A000CBBC000004000020012000F056FCFBE72A
:1036B00010B54FF0E020006902F006F8012803D0B1
:1036C000BDE8104001F0FEBB10BD30B593B028211D
:1036D0006846FCF78EFD14210AA8FCF78AFD002538
:1036E00001200F9510951195010412958DE8230086
:1036F00004904FF4E010CDE90810022407946846C6
:10370000FEF78CFD08B172B6FEE70AA90F2081E82A
:1037100031004FF48060CDE90D0502210AA8FEF7C3
:1037200081FC08B172B6FEE74FF4004011900F948F
:103730000FA8FEF701FC002801D072B6FEE713B017
:1037400030BD70470148FEF756BF0000A8010020B9
:10375000F0B50268194B1A4C1A4D4FF08047984249
:1037600005D0B84203D0A04201D0A84203D122F034
:1037700070064A683243984205D0B84203D0A0424E
:1037800001D0A84203D122F44074CA6822434C6994
:1037900022F08002224302608A68C2620A68826262
:1037A000984201D109690163012141610169C90799
:1037B00003D0016921F001010161F0BD002C01403D
:1037C000000400400008004010B5406A0021C18597
:1037D000C184FEF7B7FF10BD01680C3151E8002F1E
:1037E00022F4907241E80023002BF5D101681431D6
:1037F00051E8002F22F0010241E80023002BF5D10F
:10380000016B012909D101680C3151E8002F22F028
:10381000100241E80023002BF5D1202180F842104E
:1038200000210163704708B590F84210222901D0A9
:10383000022008BD82684FF480539A4201D1016989
:1038400021B1816A9A421BD04AB10AE00268816ABA
:103850005268C2F308020A80816A891C08E0026982
:1038600072B10268526802F07F020A70816A491CD4
:103870008162C18D491E0904090CC18503D01BE07A
:1038800002685268F1E70168CA6822F02002CA6043
:103890000168CA6822F48072CA6001684A6922F02D
:1038A00001024A61202180F8421000214163026B2D
:1038B000012A03D0FFF7FEF8002008BD016301686C
:1038C0000C3151E8002F22F0100241E80023002BB8
:1038D000F5D101680A68D20602D50A6849680091E4
:1038E000818DFEF72EFFE7E770B504460068016999
:1038F000E26821F44051114301612169A068084345
:10390000616908432168CA6841F20C639A43024323
:10391000CA6020684169A26921F440711143416184
:103920001E492068884202D1FEF742FC01E0FEF702
:103930002FFC00EBC00101EB0012606864218000E5
:10394000B2FBF0F3B3FBF1F36FF018067343B2FB75
:10395000F0F5B2FBF0F605EB8305322303EB05151A
:10396000B5FBF1F5B6FBF1F605F0F00505EB061534
:10397000B2FBF0F6B2FBF0F0B0FBF1F06FF0180222
:10398000504306EB800003EB0010B0FBF1F0216820
:1039900000F00F002844886070BD0000003801402E
:1039A00081628285C28500214164222180F8421013
:1039B000016921B10168CA6842F48072CA60016875
:1039C0004A6942F001024A610068C16841F0200181
:1039D000C160002070472DE9F843984617460D4610
:1039E0000446089E24E0701C22D0FDF73BFEA0EBAD
:1039F0000800B0421AD8CEB12068C168490717D56F
:103A0000802D15D0402D13D00168C94309070FD46C
:103A100001680025406800902046FFF7DDFE082081
:103A2000606484F840500120BDE8F8830320FBE780
:103A30002068006835EA000004D00020B842D2D0E7
:103A40000020F1E70120F9E70148FEF77DBE000004
:103A500060010020FEE70000002202210148FDF77E
:103A6000FCBD0000000C014008B5104D0126DFF838
:103A70004090104C4FF0FF380027424669462868B6
:103A800001F038FC0128F8D19DF80000012806D08B
:103A9000002202214846FDF7E0FD2770EDE70122F4
:103AA00002214846FDF7D9FD2670E6E750000020C8
:103AB000000C0140550000200FB4054B10B503A9C0
:103AC000044A029800F056F810BC5DF814FB0000A0
:103AD000D93E0008D80000200FB47CB50C0009AD19
:103AE00001D0611E00E00021CDE90001064B6A46CD
:103AF0002946089800F03EF8002C02D0009A0021D8
:103B000011707CBC5DF814FBB73E00080FB4084B85
:103B100010B504A902AA039800F02CF8044602A9E3
:103B2000002000F0D3F9204610BC5DF814FB000023
:103B3000CD3E00080907090E002804DB00F1E02053
:103B400080F80014704700F00F0000F1E02080F8CA
:103B5000141D704702E008C8121F08C1002AFAD1DC
:103B600070477047002001E001C1121F002AFBD1FD
:103B7000704700002DE9FF4F8BB0884605460026B0
:103B800006E025280BD0DDE90D1290476D1C761C50
:103B900028780028F5D10FB03046BDE8F08F00241A
:103BA000A146A2460122AE4900E0044315F8013FB8
:103BB000203B02FA03F00842F7D128782A2810D0D7
:103BC0006FF02F022878A0F13001092915D809EBF0
:103BD000890102EB410144F0020400EB01096D1C74
:103BE000F0E758F8041B5FEA010903D544F40054D8
:103BF000C9F1000944F002046D1C28782E2817D161
:103C000015F8010F44F004042A280ED06FF02F029B
:103C10002878A0F1300109290AD80AEB8A0102EBC1
:103C2000410100EB010A6D1CF2E758F804AB6D1C72
:103C300028786C280FD006DC4C2817D068280DD0C7
:103C40006A2814D104E0742810D07A280FD10DE02E
:103C500044F400140AE044F4801401E044F44014F5
:103C60006978814202D104F580146D1C6D1C28789E
:103C7000692865D006DC00288DD0632827D0642809
:103C800006D15DE06E2808D073282AD0752877D039
:103C9000DDE90D129047761CE0E0C4F302500228E3
:103CA00009D003280DD0D8F8001004280DD00E60DC
:103CB00008F10408D2E0D8F80010F217C1E9006258
:103CC000F6E7D8F800100E80F2E70E70F0E718F86B
:103CD000041B8DF8001000208DF80100EB46012038
:103CE00003E058F804BB4FF0FF3061074FF00007C6
:103CF00001D40AE07F1C57450DDA8742FADB1BF836
:103D000007100029F6D106E07F1C8742FCDB1BF878
:103D100007100029F8D1DDE90D23A9EB0700814642
:103D2000214600F0B1F83044C61904E0DDE90D1277
:103D30001BF8010B90477F1EF8D22146484688E0C9
:103D400058F8040BC4F302514FF00A0B032900D1B9
:103D500000B2042900D140B2002802DA40422D21ED
:103D600002E0210505D52B218DF82410012104E066
:103D700006E0E10710D02021F6E708AF089113E034
:103D800058F8040BC4F302514FF00A0B032900D179
:103D900080B2042900D1C0B20021EEE75946FCF7F9
:103DA0005EFA303107F8011D0028F7D1ADEB0700AE
:103DB00000F1200B600702D524F4803401E04FF0BD
:103DC000010ADA4502DDAAEB0B0000E00020824682
:103DD00000EB0B0108980144A9EB01000A90E003F5
:103DE00006D4DDE90D2321460A9800F04DF806447B
:103DF0004FF0000908E009A911F80900DDE90D12EA
:103E0000904709F10109761C08998945F3DBE00325
:103E10000CD5DDE90D2321460A9800F035F806445B
:103E200004E0DDE90D1230209047761CBAF1000164
:103E3000AAF1010AF5DC05E0DDE90D1217F8010B26
:103E40009047761CBBF10001ABF1010BF4DC0A9842
:103E50002146DDE90D2300F005F806446D1C97E6C8
:103E6000092801002DE9F041044600251E461746A9
:103E7000880404D405E039462020B0476D1C641E38
:103E8000F9D52846BDE8F0812DE9F041044600252A
:103E90001E469046C80301D5302700E0202788043D
:103EA00004D505E041463846B0476D1C641EF9D57F
:103EB0002846BDE8F0814A68002A06D00A68531CEB
:103EC0000B6010704868401E486070470A68531CB9
:103ED0000B6010707047000013B505484FF4FA737B
:103EE000012269460068FEF721FE00981CBD000013
:103EF0002C000020FDF70CFFFFF7E7FBFFF782F92E
:103F0000FFF706F9FFF7E6F9FFF7C4F901220549C3
:103F10000548FEF7C1FD00F02DF8FFF721F900F08C
:103F20003BF8FEE7000000206001002010B5401AB9
:103F3000029CE41A6043511A90FBF1F0184410BD42
:103F400070B5054600244FF47A7603E0304600F061
:103F5000E7FC641CAC42F9DB70BD10B5EFF30581E2
:103F600011B16FF0050403E0002408B100F028FE51
:103F7000204610BDEFF3058010B16FF005007047CB
:103F80000448016811B14FF0FF3070470121016012
:103F900000207047A800002010B5EFF3058010B195
:103FA0006FF0050010BD08480168012902D04FF0EC
:103FB000FF3010BD054A002182F8141D0221016066
:103FC00000F0AEFE002010BDA80000200BE000E0D5
:103FD0002DE9FF414FEA01034FF00005EFF30581A2
:103FE000039549BB40B38027182100244AB31668C3
:103FF00006B1344696691EB13146761E382E02D27D
:104000001679F60703D0002004B0BDE8F0815669A8
:1040100006B1B708D2F808C0BCF1000F0DD0D568C2
:104020005C2D18D312693AB136B18DE806103A46C4
:10403000214601F01EFB03900DE0D6685EB91269BF
:104040004AB903AACDE90012BAB2214601F0E4FA56
:10405000012800D003950398D6E700002DE9F04130
:10406000134C0F460546E6682068001D00F074FCFE
:10407000681C07D137B12168BDE8F0410D48091D22
:1040800000F0BABC20683544B5424560216805D2CD
:10409000A06BBDE8F041091D00F096BC606B091DE6
:1040A00000F092FCA06A854200D2A562BDE8F081D2
:1040B00058000020140900202DE9F041054600F0C9
:1040C000A7FC2D4CA068401CA06020682B4F10B1AD
:1040D000606930B32BE02560A068012827D1002655
:1040E00006EB860007EB800000F060FC761C382EA3
:1040F000F6D3234800F05AFC2148143000F056FC57
:104100001F48283000F052FC1D483C3000F04EFCA7
:104110001B48503000F04AFC194860631430A0631B
:1041200005E02068E96AC06A884200D82560606AB4
:10413000401C60626864E86A2169884200D9206195
:1041400000EB800007EB8000291D00F055FC00F01B
:104150007FFC606900280CD02068E96AC06A884248
:1041600007D208494FF080500860BFF34F8FBFF36C
:104170006F8FBDE8F081000058000020640400202B
:10418000C408002004ED00E038B500F041FC104CFC
:104190002068C8B90F4800F009FC0E48143000F040
:1041A00005FC0C48E060143020610A4B0020F03B15
:1041B000009003F1500210210A2000F0C5FE20609B
:1041C00010B105A100F0C6FCBDE8384000F040BCCD
:1041D00094000020180A0020546D72510000000065
:1041E00030B4026C0B46002A0BD0C1681144C16088
:1041F0008468A14201D30168C16030BC1846FBF756
:10420000DFBF30BC70472DE9F041856B174604468F
:104210000026026C82B1C7B1E068FBF7D1FFE1680C
:10422000206C091AE1602268914202D2A168081A42
:10423000E060022F16D017E02068A8B9A06801F04E
:10424000BBFA06460020A0600EE06068FBF7B8FFEE
:10425000216C606808446060A168884204D32068CB
:10426000606001E005B16D1E6D1CA5633046BDE8C0
:10427000F08110B5044690F8590058B101280CD0CF
:1042800002280FD0502080F31188BFF34F8FBFF367
:104290006F8FFEE7206B00F0EFFB2046BDE810407B
:1042A00000F0EABB10BD000010484FF4FA5142077D
:1042B00006D0C01D0D4920F00700411AC1F5FA5182
:1042C0000B4A00230144C2E900030839183A21F0DF
:1042D000070111604B600B600B1AC0E9001393607B
:1042E0004FF000405360506170470000F81000200C
:1042F000C4000020144E154CA6F29C474FF0805885
:10430000DFF84C9012E000BF00F082FBF068C56857
:10431000281D00F021FBA068401EA0606068401EC0
:10432000606000F095FB2846FFF7A3FF6068002857
:10433000EAD138680128F9D9C9F80080BFF34F8F56
:10434000BFF36F8FF2E70000000900205800002043
:1043500004ED00E0002807D00021816001600B46D9
:104360000A46C16000F068BE7047000070B51D4687
:10437000049C51B1C4F80020C4E90F01012120467A
:1043800000F016FE84F84C5070BD2460F4E7000085
:104390002DE9F05F8846DDE90B94154683469100D0
:1043A0009A460A9EA522206BFBF71CFF6FF00301C3
:1043B000206B01EB8501084420F00707780707D040
:1043C000502080F31188BFF34F8FBFF36F8FFEE74C
:1043D0000025B8F1000F0FD05FF00000221818F888
:1043E000001082F8341018F8001011B1401C102889
:1043F000F4D384F8435001E084F83450382E00D3CD
:104400003726E662C4E91365201D00F0DAFA04F1EC
:10441000180000F0D6FA2461C6F138006462A06189
:10442000656584F8585052465946384600F066FA99
:104430002060B9F1000F01D0C9F80040BDE8F09F3D
:1044400030B5114900E011460A688242FBD34B683F
:104450005C18844203D140681844486008464368A9
:104460001C18944209D1084C183C2468A24209D077
:1044700052681A4442600A6812680260814200D0A1
:10448000086030BD0460F9E7C400002070B5002466
:1044900041600B4D0061914206D8D11A8269914268
:1044A00006D2011D286907E09A4203D2994201D33E
:1044B000012403E0011DE86800F086FA204670BD83
:1044C0009400002010B5044600F0A2FAA06B28B1B9
:1044D0005FF0000400F0BCFA204610BD0124F9E7AB
:1044E00030B589B03C4D6EE00498002806DADDE96D
:1044F0000601059A90470498002864DB069C6069D1
:1045000010B1201D00F028FA03A800F0D7F80246E9
:1045100004980A2857D2DFE800F00505052D334A34
:1045200005052D3394F8280040F0010084F8280098
:104530000599A069059B01442046FFF7A7FF68B3D2
:10454000216A2046884794F8280040073BD5002080
:1045500000900598A169002342181946204601F0F1
:1045600071FAD8B9502080F31188BFF34F8FBFF391
:104570006F8FFEE714F8280F20F00100207022E072
:1045800094F8280040F0010084F828000598A06104
:1045900028B1811813462046FFF778FF13E050201A
:1045A00080F31188BFF34F8FBFF36F8FFEE794F84E
:1045B0002800810703D4204600F05EFA03E020F0D3
:1045C000010084F82800002204A9286800F092FE67
:1045D000002889D109B030BD940000202DE9FC41AC
:1045E0000F46054600F0E0FB01A800F067F804461E
:1045F000019818B101F094F9BDE8FC81254EAFB1E6
:1046000030690068D0B30027291B3A46306800F0B3
:10461000B5FA01F085F90028EED11F494FF080501E
:104620000860BFF34F8FBFF36F8FE5E7A542EBD86C
:1046300001F076F9F0682746C068C468201D00F0D4
:104640008BF994F82800410719D5A0692B46411928
:104650003A462046FFF71AFFA8B10020034601465C
:1046600000902A46204601F0EDF960B9502080F311
:104670001188BFF34F8FBFF36F8FFEE707E020F085
:10468000010084F82800216A20468847B4E7012702
:10469000BAE700009400002004ED00E00648416BFA
:1046A000096829B1416BC968C96849688162704766
:1046B0004FF0FF31FAE700005800002070B50546C2
:1046C00001F010F8064E0446B068844203D200F0B0
:1046D00009F8012000E0002028602046B46070BD89
:1046E00094000020F8B5194D20E0C068C468066841
:1046F000201D00F031F9216A2046884794F82800EF
:10470000400713D5A0693044B04206D924616060E7
:10471000211DE86800F058F908E000200346014632
:1047200000903246204601F08DF938B1E868016802
:104730000029DAD12969C5E90310F8BD502080F3BA
:104740001188BFF34F8FBFF36F8FFEE794000020F7
:1047500008484068401C4FF0500080F3118804D096
:10476000BFF34F8FBFF36F8FFEE7BFF34F8FBFF3E2
:104770006F8FFEE7CC000020074CE068016841B174
:10478000C0680021D0F80000FFF728FFFFF7A8FE5F
:10479000F3E701210020F7E7940000202DE9F04124
:1047A000044600F035F994F9455004F1240609E077
:1047B000606A48B1304601F07BF808B100F02EFA8B
:1047C0006D1E6DB2002DF3DC4FF0FF3684F84560AE
:1047D00000F03EF900F01CF994F9445004F1100780
:1047E00009E0206948B1384601F062F808B100F0EC
:1047F00015FA6D1E6DB2002DF3DC84F84460BDE83F
:10480000F04100F025B900002DE9F04105460027F0
:1048100000F0CAFA324E306808B9FFF745FD7069FA
:1048200005424ED1C5B3083568070ED005F0070024
:10483000C0F108000544680707D0502080F31188B4
:10484000BFF34F8FBFF36F8FFEE72DB370688542C4
:1048500037D82348183001460C6801E020460C4642
:104860006168A94202D221680029F7D131688C42DF
:1048700027D007682168016060680837411B10294C
:104880000FD96019420708D0502080F31188BFF378
:104890004F8FBFF36F8FFEE713E041606560FFF756
:1048A000CFFD61687068401A7060B268904200D2B3
:1048B000B060706901430020C4E90001F068401C49
:1048C000F06001F02DF8780707D0502080F31188B0
:1048D000BFF34F8FBFF36F8FFEE73846BDE8F0811F
:1048E000AC0000200449086818B10868026D521C29
:1048F00002650868704700005800002010B5031FCB
:104900004FF080741C601B1F21F001011960191FFA
:10491000024B0B60143940380A6010BD5147000843
:1049200030B50C4A00211368DC6A4FF47A72604398
:10493000B0FBF2F55A6A586A9042FCD002D9A0EB5B
:10494000020202E0A4EB0202024411440246A94220
:10495000F1D330BDA8010020D0E9013201699A608D
:10496000D0E901235A604A68824201D182684A60D4
:10497000002202610868401E086008687047000055
:10498000034B036003F15C000860802010607047F7
:10499000400A0020044B036003F15C0008604FF400
:1049A00080701060704700009C0C002000F108012E
:1049B0004FF0FF32C0E90112C160016100210160C6
:1049C000704700210161704730B50B685A1C02D056
:1049D00000F1080202E0026904E0224654682568FA
:1049E0009D42FAD953684B6099608A6051600861B2
:1049F0000168491C016030BD42684A6093688B6061
:104A000093685960916008610168491C01607047B2
:104A1000502080F31188BFF34F8FBFF36F8F0A4987
:104A20004868401C486001280CD10848006810F014
:104A3000FF0F07D0502080F31188BFF34F8FBFF3D3
:104A40006F8FFEE770470000CC00002004ED00E00F
:104A50000849486828B1401E486001D180F3118898
:104A60007047502080F31188BFF34F8FBFF36F8FD3
:104A7000FEE70000CC00002070B500282AD0164DBB
:104A8000A0F1080460686969084207D1502080F3EA
:104A90001188BFF34F8FBFF36F8FFEE722683AB1E3
:104AA000502080F31188BFF34F8FBFF36F8FFEE765
:104AB0008843606000F078F960686968084468605D
:104AC0002046FFF7BDFC2869401C2861BDE8704006
:104AD00000F026BF70BD0000AC0000204FF0E020C9
:104AE00000210161816105494FF47A720968B1FBC7
:104AF000F2F1491E41610721016170471C0000204D
:104B000010B5FBF747FB114910280ED300F1E02048
:104B100090F8F0030A78904207D2502080F3118871
:104B2000BFF34F8FBFF36F8FFEE7094800688968B6
:104B300000F4E060884207D9502080F31188BFF369
:104B40004F8FBFF36F8FFEE710BD0000CC00002039
:104B50000CED00E010B5084B002200BF53F83240C6
:104B60001CB1521C082AF9D310BD43F8321003EBD4
:104B7000C201486010BD00002404002070B5154635
:104B80000E460446FFF744FF94F944100020491CE8
:104B900001D184F8440094F94510491C01D184F8EE
:104BA0004500FFF755FFA06B28B92A46314604F1AE
:104BB000240000F051F82046BDE87040FFF7EEBD3C
:104BC00010B5020014D00F48006B38B1502080F3AC
:104BD0001188BFF34F8FBFF36F8FFEE700F0E4F84B
:104BE00000211046FFF73AFA00F09AFE002807D19C
:104BF00005494FF080500860BFF34F8FBFF36F8FB0
:104C000010BD00005800002004ED00E002490A6ACF
:104C10000260C968416070475800002001490120C6
:104C2000C86170475800002010B50C4650B10949C2
:104C300009681831FFF7C8FE2046BDE81040012181
:104C4000FFF70CBA502080F31188BFF34F8FBFF3EA
:104C50006F8FFEE75800002070B514460D4668B10E
:104C60000A4909681831FFF7C7FE0CB14FF0FF354C
:104C700021462846BDE87040FFF7F0B9502080F388
:104C80001188BFF34F8FBFF36F8FFEE758000020EE
:104C900070B504003ED0226DA2B1E06C884200D312
:104CA0000146E06A884235D0012A33D11A4D2A687C
:104CB00094420FD1502080F31188BFF34F8FBFF380
:104CC0006F8FFEE7502080F31188BFF34F8FBFF343
:104CD0006F8FFEE7E162A269002A02DBC1F13801B1
:104CE000A1610E4E00EB8000616906EB80008142FD
:104CF00010D1201DFFF730FEE06A2969884200D9F3
:104D0000286100EB800006EB8000211DBDE87040AB
:104D1000FFF772BE70BD0000580000206404002040
:104D200030B587B00024039405AA04A903A804940D
:104D3000FFF726FEDDE903010094CDE90110002311
:104D400015A11748059A00F094FC164D0028E8625A
:104D50001FD000F047FE012809D0401C19D1502077
:104D600080F31188BFF34F8FBFF36F8FFEE75020A2
:104D700080F31188BFF34F8FBFF36F8F4FF0FF3079
:104D8000A86201206861EC6007B0BDE8304000F027
:104D900045B807B030BD000049444C450000000054
:104DA000F5420008580000200248016B491C0163CD
:104DB0007047000058000020164810B5016B11B173
:104DC0000121C16110BD0021C1610169124A01E0E8
:104DD000B9B1491E01EB810352F82330002BF7D003
:104DE00001EB810302EB830202F1080453685B6864
:104DF0005360A34201D15B685360DA6802600161CD
:104E000010BD502080F31188BFF34F8FBFF36F8F19
:104E1000FEE7000058000020640400201CB526496D
:104E200008780190FF20087008788DF800009DF840
:104E300000009DF8002000F0F000904207D05020C4
:104E400080F31188BFF34F8FBFF36F8FFEE79DF89C
:104E500000001A4C00F0500020700720A06005E010
:104E60009DF8002052008DF80020401E9DF8002083
:104E70001206F5D4A060032807D0502080F31188D3
:104E8000BFF34F8FBFF36F8FFEE74FF44070A0600A
:104E9000019808700A48016841F4700101600168D6
:104EA00041F070410160FFF719FE00206060FBF7E0
:104EB0003BF900201CBD000000E400E0CC00002015
:104EC00020ED00E010B5502080F31188BFF34F8F24
:104ED000BFF36F8F00F00CFC18B104494FF0805005
:104EE0000860002080F3118810BD000004ED00E090
:104EF00010B502460021012000F005F80446FFF736
:104F000029FA204610BDF8B517460E46050013D005
:104F100005FB06F05030FFF777FC04000AD00020B4
:104F200084F8460004F150023B463146284600947E
:104F3000FFF71CFA2046F8BD502080F31188BFF31C
:104F40004F8FBFF36F8FFEE738B5049D18B153B193
:104F5000CAB181B120E0502080F31188BFF34F8F98
:104F6000BFF36F8FFEE7502080F31188BFF34F8FA0
:104F7000BFF36F8FFEE7502080F31188BFF34F8F90
:104F8000BFF36F8FFEE739B1502080F31188BFF374
:104F90004F8FBFF36F8FFEE750241C46012384F828
:104FA00046302B460094FFF7E1F9204638BD00005B
:104FB00070B50D46040025D0FFF72AFDD4E90F2077
:104FC000216802FB0011A1600021A16321686160DA
:104FD0000A46D4E90F01401E00FB0121E160214691
:104FE0004FF0FF3001F8440F487004F110008DB10C
:104FF000FFF7DCFC04F12400FFF7D8FCFFF728FDE5
:10500000012070BD502080F31188BFF34F8FBFF394
:105010006F8FFEE721690029F0D000F049FC0028DD
:10502000ECD004494FF080500860BFF34F8FBFF3BE
:105030006F8FE3E704ED00E02DE9FF4782B01D46E6
:105040008A464FF00008040003D0BAF1000F08D0E0
:1050500011E0502080F31188BFF34F8FBFF36F8FA3
:10506000FEE7206C38B1502080F31188BFF34F8FDA
:10507000BFF36F8FFEE7022D0AD1E06B012807D046
:10508000502080F31188BFF34F8FBFF36F8FFEE77F
:1050900000F01AFB3F4F4FF000094FF0805648B91F
:1050A000049838B1502080F31188BFF34F8FBFF3BD
:1050B0006F8FFEE7FFF7ACFCA06BE16B884207D374
:1050C000022D05D00498D0B1B8F1000F1AD01EE01F
:1050D0002A4651462046FFF796F8616A19B104F155
:1050E000240000F0E5FB20B13E60BFF34F8FBFF31B
:1050F0006F8FFFF7ADFC012006B0BDE8F087FFF72A
:10510000A7FC22E06846FFF781FD4FF00108FFF79A
:105110009FFCFFF749FEFFF77BFC94F94400401C1D
:1051200001D184F8449094F94500401C01D184F8E1
:105130004590FFF78DFC04A9684600F033FA30B1C2
:105140002046FFF72BFB00F0EBFB0020D4E7FFF736
:105150005FFCA06BE16B884213D1FFF779FC04F18F
:1051600010000499FFF760FD2046FFF717FB00F0E1
:10517000D7FB00289ED13E60BFF34F8FBFF36F8FE8
:1051800098E7FFF765FC2046FFF708FB00F0C8FB37
:1051900090E7000004ED00E02DE9F0471F4690463F
:1051A0008946040003D0B9F1000F08D011E0502067
:1051B00080F31188BFF34F8FBFF36F8FFEE7206C32
:1051C00038B1502080F31188BFF34F8FBFF36F8F3A
:1051D000FEE7022F0AD1E06B012807D0502080F3B0
:1051E0001188BFF34F8FBFF36F8FFEE7FFF788FC87
:1051F0005020EFF3118680F31188BFF34F8FBFF378
:105200006F8FA06BE16B884206D3022F04D0002081
:1052100086F31188BDE8F08794F94550A06B3A46B3
:1052200049462046FEF7EFFF681C04D06D1C84F849
:1052300045500120ECE7606A0028FAD004F1240010
:1052400000F036FB0028F4D0B8F1000FF1D00121B6
:10525000C8F80010EDE770B50E46040009D0206CC8
:1052600078B1502080F31188BFF34F8FBFF36F8F59
:10527000FEE7502080F31188BFF34F8FBFF36F8F8D
:10528000FEE7206848B9A06838B1502080F3118843
:10529000BFF34F8FBFF36F8FFEE7FFF731FC502056
:1052A000EFF3118580F31188BFF34F8FBFF36F8F3A
:1052B000A16BE06B884218D994F94500491CA163A1
:1052C000411C04D0401C84F8450001200EE0606AB7
:1052D0000028FAD004F1240000F0EAFA0028F4D003
:1052E000002EF2D001203060EFE7002085F3118816
:1052F00070BD00002DE9F747002683B08A46040000
:1053000003D0BAF1000F08D011E0502080F31188CB
:10531000BFF34F8FBFF36F8FFEE7206C38B1502083
:1053200080F31188BFF34F8FBFF36F8FFEE700F05C
:10533000CBF9DFF8F4804FF000094FF0805748B9FF
:10534000059838B1502080F31188BFF34F8FBFF319
:105350006F8FFEE7FFF75CFBA56BC5B1514620469A
:10536000FEF73EFF6D1EA563206950B104F11000E9
:1053700000F09EFA28B1C8F80070BFF34F8FBFF35A
:105380006F8FFFF765FB012006B0BDE8F087059839
:1053900008B11EB106E0FFF75BFB27E06846FFF7A8
:1053A00035FC0126FFF754FBFFF7FEFCFFF730FB4F
:1053B00094F94400401C01D184F8449094F94500CC
:1053C000401C01D184F84590FFF742FB05A96846CF
:1053D00000F0E8F8002820460AD0FFF7DFF900F0D7
:1053E0009FFA2046FFF76EF80028B3D00020CBE7E5
:1053F000FFF768F890B104F124000599FFF714FC59
:105400002046FFF7CBF900F08BFA0028A2D1C8F8AC
:105410000070BFF34F8FBFF36F8F9BE72046FFF7FE
:10542000BDF900F07DFA95E704ED00E02DE9F343C6
:10543000002683B00400354609D0206C78B1502096
:1054400080F31188BFF34F8FBFF36F8FFEE75020BB
:1054500080F31188BFF34F8FBFF36F8FFEE700F02B
:1054600033F9DFF83C814FF000094FF0805748B91D
:10547000049838B1502080F31188BFF34F8FBFF3E9
:105480006F8FFEE7FFF7C4FAA06BC8B1401EA063A0
:10549000206810B9FFF726FAA060206950B104F126
:1054A000100000F005FA28B1C8F80070BFF34F8F64
:1054B000BFF36F8FFFF7CCFA012005B0BDE8F08392
:1054C000049808B166B10FE03DB1502080F3118817
:1054D000BFF34F8FBFF36F8FFEE7FFF7B9FA5DE0C1
:1054E0006846FFF793FB0126FFF7B2FAFFF75CFC73
:1054F000FFF78EFA94F94400401C01D184F84490DF
:1055000094F94500401C01D184F84590FFF7A0FABA
:1055100004A9684600F046F80028204612D0FFF79C
:105520003DF900F0FDF92046FEF7CCFF0028A9D098
:105530009DB3FFF76DFA606A50B3206B0068C0F14D
:10554000380126E0FEF7BEFFE0B1206838B9FFF76A
:105550005FFAA06800F070F90546FFF779FA04F1E8
:1055600024000499FFF760FB2046FFF717F900F0CD
:10557000D7F9002886D1C8F80070BFF34F8FBFF36A
:105580006F8F7FE72046FFF709F900F0C9F979E747
:105590000021A068FFF77CFB9FE7FFE700208CE776
:1055A00004ED00E02DE9F0410C46050011D0C4B136
:1055B000FFF72EFA174BDA686E682068911B471CBC
:1055C00017D02F681B6A9F4219D0964217D8012422
:1055D00010E0502080F31188BFF34F8FBFF36F8F1F
:1055E000FEE7502080F31188BFF34F8FBFF36F8F1A
:1055F000FEE70024FFF72CFA2046BDE8F081884240
:1056000005D9401A20602846FFF700FBF1E700208B
:105610002060DCE7580000202DE9FF5F8346DDE9CC
:105620000E87994616468A469000FFF7EDF805006A
:105630001CD05C20FFF7E8F8040014D0002025639C
:1056400084F85900CDE90240CDE900874B46324647
:1056500051465846FEF79CFE2046FEF72DFD0120E0
:1056600004B0BDE8F09F2846FFF706FA4FF0FF3080
:10567000F6E7F0B585B0DDE90B640A9DA6B1DCB1B3
:105680005C2700972663022684F85960002604AF41
:10569000CDE90246CDE90057FEF77AFE2046FEF737
:1056A0000BFD049805B0F0BD502080F31188BFF3C6
:1056B0004F8FBFF36F8FFEE7502080F31188BFF349
:1056C0004F8FBFF36F8FFEE70548416919B1006B3B
:1056D00018B1002070470120704702207047000079
:1056E000580000200148C0687047000058000020A2
:1056F0002DE9F0412E4C0027206B28B1A069401CF9
:10570000A0613846BDE8F081E668761CE66013D1FA
:10571000606B006838B1502080F31188BFF34F8F61
:10572000BFF36F8FFEE7606BA16B6163A063206ABC
:10573000401C2062FEF7B2FFA06ADFF87880864244
:1057400009D3606B0068A0B1606BC068C568686809
:10575000864211D2A0622068C06A00EB800158F82E
:105760002100012800D90127E0690028C9D00127BC
:10577000C7E74FF0FF30EDE7281DFFF7EDF8A86A07
:1057800018B105F11800FFF7E7F8E86A21698842C7
:1057900000D9206100EB800108EB8100291DFFF793
:1057A0002BF9E86A2168C96A8842CAD30127C8E789
:1057B000580000206404002070B504004FF0000180
:1057C00033D01B4D2868844207D0502080F31188C5
:1057D000BFF34F8FBFF36F8FFEE7206D38B1401ED0
:1057E0002065E36CE26A9A421FD040B11DE0502070
:1057F00080F31188BFF34F8FBFF36F8FFEE7201D3B
:10580000FFF7AAF8E06CE062C0F13800A061E06A3E
:105810002969884200D92861064900EB800001EB24
:105820008000211DFFF7E8F80121084670BD000047
:10583000580000206404002070B504004FF0000000
:105840002BD0194DE16A2A68D26A914226D2A0690A
:10585000002804DB2868C06AC0F13800A061134E3C
:1058600001EB8101606906EB8101884211D1201DA5
:10587000FFF772F82868C06AE0622969884200D997
:10588000286100EB800006EB8000211DFFF7B4F8D3
:1058900002E02868C06AE062012070BDE16C2A68FD
:1058A000D26A9142F8D370BD5800002064040020F1
:1058B00070B5C068C46854B104F118000646FFF71B
:1058C0004BF8144D286B50B13146134815E0502069
:1058D00080F31188BFF34F8FBFF36F8FFEE7201D5A
:1058E000FFF73AF8E06A2969884200D928610B4934
:1058F00000EB800001EB8000211DFFF77DF8E06ADE
:105900002968C96A884202D90120E86170BD002077
:1059100070BD000058000020EC0800206404002046
:105920002DE9F0472C4D00242746286B38B1FFF7AE
:105930006FF8286B401E2863286B40B146E050206A
:1059400080F31188BFF34F8FBFF36F8FFEE7A96815
:10595000224E0120D1B3A6F5916980463068E0B1AE
:10596000F068C46804F11800FEF7F6FF201DFEF78A
:10597000F3FFE06A2969884200D9286100EB8001C1
:1059800009EB8100211DFFF737F8E06A2968C96A31
:105990008842E3D3C5F81C80E0E70CB1FEF77EFE39
:1059A000AC694CB14FEA0806FFF7A2FE00B1EE6108
:1059B000641EF9D10020A861E86938B108490127BF
:1059C00038070860BFF34F8FBFF36F8FFFF740F8C2
:1059D0003846BDE8F087000058000020EC080020A1
:1059E00004ED00E010B586B0FEF7CEFB114C206848
:1059F000B8B100200390049005AA04A903A8FEF7FB
:105A0000C9FFDDE9032102208DE8070000230AA178
:105A10000B48059AFFF72DFE606010B106B001201B
:105A200010BD502080F31188BFF34F8FBFF36F8FED
:105A3000FEE7000094000020546D7220537663004E
:105A4000794700082DE9FF411E46134602000A9DD2
:105A50004FF0000016D0144C2768002F0FD0CDE96E
:105A600000130292062917DAFFF72EFE02284FF0E4
:105A700000030FD0002269462068FFF7DDFA04B06A
:105A8000BDE8F081502080F31188BFF34F8FBFF342
:105A90006F8FFEE72A46EEE7002332466946384616
:105AA000FFF77AFBEBE70000940000200C6300088E
:105AB00000000000000000000000000000000000E6
:105AC00000020000180000000000000000000000BC
:105AD000010202030405060708090A0B0C0D0E0F4C
